{
  "_format": "hh-sol-artifact-1",
  "contractName": "BlockFunding",
  "sourceName": "contracts/BlockFunding.sol",
  "abi": [
    {
      "inputs": [],
      "stateMutability": "nonpayable",
      "type": "constructor"
    },
    {
      "inputs": [],
      "name": "fundPetitions",
      "outputs": [],
      "stateMutability": "payable",
      "type": "function"
    },
    {
      "inputs": [
        {
          "internalType": "address",
          "name": "",
          "type": "address"
        }
      ],
      "name": "funders",
      "outputs": [
        {
          "internalType": "uint256",
          "name": "",
          "type": "uint256"
        }
      ],
      "stateMutability": "view",
      "type": "function"
    },
    {
      "inputs": [
        {
          "internalType": "uint256",
          "name": "index",
          "type": "uint256"
        }
      ],
      "name": "getFavourcount",
      "outputs": [
        {
          "internalType": "uint256",
          "name": "",
          "type": "uint256"
        }
      ],
      "stateMutability": "view",
      "type": "function"
    },
    {
      "inputs": [],
      "name": "getTimeDeadline",
      "outputs": [
        {
          "internalType": "uint256",
          "name": "",
          "type": "uint256"
        }
      ],
      "stateMutability": "view",
      "type": "function"
    },
    {
      "inputs": [],
      "name": "getnoOfFunders",
      "outputs": [
        {
          "internalType": "uint256",
          "name": "",
          "type": "uint256"
        }
      ],
      "stateMutability": "view",
      "type": "function"
    },
    {
      "inputs": [],
      "name": "manager",
      "outputs": [
        {
          "internalType": "address payable",
          "name": "",
          "type": "address"
        }
      ],
      "stateMutability": "view",
      "type": "function"
    },
    {
      "inputs": [
        {
          "internalType": "uint256",
          "name": "index",
          "type": "uint256"
        }
      ],
      "name": "payRecipient",
      "outputs": [
        {
          "internalType": "string",
          "name": "result",
          "type": "string"
        }
      ],
      "stateMutability": "payable",
      "type": "function"
    },
    {
      "inputs": [
        {
          "internalType": "uint256",
          "name": "",
          "type": "uint256"
        }
      ],
      "name": "petition",
      "outputs": [
        {
          "internalType": "string",
          "name": "name",
          "type": "string"
        },
        {
          "internalType": "uint256",
          "name": "amountNeeded",
          "type": "uint256"
        },
        {
          "internalType": "address payable",
          "name": "recipient",
          "type": "address"
        },
        {
          "internalType": "uint256",
          "name": "favourCount",
          "type": "uint256"
        },
        {
          "internalType": "bool",
          "name": "isFullfilled",
          "type": "bool"
        }
      ],
      "stateMutability": "view",
      "type": "function"
    },
    {
      "inputs": [],
      "name": "raisedAmount",
      "outputs": [
        {
          "internalType": "uint256",
          "name": "",
          "type": "uint256"
        }
      ],
      "stateMutability": "view",
      "type": "function"
    },
    {
      "inputs": [],
      "name": "refund",
      "outputs": [],
      "stateMutability": "payable",
      "type": "function"
    },
    {
      "inputs": [
        {
          "internalType": "uint256",
          "name": "_totalFundNeed",
          "type": "uint256"
        },
        {
          "internalType": "uint256",
          "name": "_timeDeadline",
          "type": "uint256"
        }
      ],
      "name": "setFundTime",
      "outputs": [],
      "stateMutability": "nonpayable",
      "type": "function"
    },
    {
      "inputs": [
        {
          "internalType": "string",
          "name": "_name",
          "type": "string"
        },
        {
          "internalType": "uint256",
          "name": "_amountNeeded",
          "type": "uint256"
        },
        {
          "internalType": "address",
          "name": "_recipient",
          "type": "address"
        }
      ],
      "name": "setPetition",
      "outputs": [],
      "stateMutability": "nonpayable",
      "type": "function"
    },
    {
      "inputs": [],
      "name": "timeDeadline",
      "outputs": [
        {
          "internalType": "uint256",
          "name": "",
          "type": "uint256"
        }
      ],
      "stateMutability": "view",
      "type": "function"
    },
    {
      "inputs": [],
      "name": "totalFundNeed",
      "outputs": [
        {
          "internalType": "uint256",
          "name": "",
          "type": "uint256"
        }
      ],
      "stateMutability": "view",
      "type": "function"
    },
    {
      "inputs": [],
      "name": "totalPetitions",
      "outputs": [
        {
          "internalType": "uint256",
          "name": "",
          "type": "uint256"
        }
      ],
      "stateMutability": "view",
      "type": "function"
    },
    {
      "inputs": [
        {
          "internalType": "uint256",
          "name": "index",
          "type": "uint256"
        }
      ],
      "name": "votePetition",
      "outputs": [],
      "stateMutability": "nonpayable",
      "type": "function"
    }
  ],
  "bytecode": "0x608060405234801561001057600080fd5b5033600760006101000a81548173ffffffffffffffffffffffffffffffffffffffff021916908373ffffffffffffffffffffffffffffffffffffffff160217905550611a3a806100616000396000f3fe6080604052600436106100f35760003560e01c80635de909fa1161008a578063a5e0e9bb11610059578063a5e0e9bb146102ee578063c59ee1dc14610319578063d15217b414610344578063e58bc01c14610374576100f3565b80635de909fa1461024f57806362696e9f146102905780637cda6f701461029a57806394443e1b146102c5576100f3565b80634840cafb116100c65780634840cafb146101c657806353c8b1a5146101ef57806356b14c661461021a578063590e1ae314610245576100f3565b8063031b3677146100f857806317b1ed37146101355780631cc0f8561461015e578063481c6a751461019b575b600080fd5b34801561010457600080fd5b5061011f600480360381019061011a9190610efe565b61039f565b60405161012c9190610f44565b60405180910390f35b34801561014157600080fd5b5061015c60048036038101906101579190610f8b565b6103b7565b005b34801561016a57600080fd5b5061018560048036038101906101809190610fcb565b610464565b6040516101929190610f44565b60405180910390f35b3480156101a757600080fd5b506101b0610489565b6040516101bd9190611019565b60405180910390f35b3480156101d257600080fd5b506101ed60048036038101906101e89190610fcb565b6104af565b005b3480156101fb57600080fd5b50610204610695565b6040516102119190610f44565b60405180910390f35b34801561022657600080fd5b5061022f6106a2565b60405161023c9190610f44565b60405180910390f35b61024d6106a8565b005b34801561025b57600080fd5b5061027660048036038101906102719190610fcb565b6107f6565b6040516102879594939291906110e8565b60405180910390f35b6102986108e1565b005b3480156102a657600080fd5b506102af610a8c565b6040516102bc9190610f44565b60405180910390f35b3480156102d157600080fd5b506102ec60048036038101906102e79190611277565b610a92565b005b3480156102fa57600080fd5b50610303610b49565b6040516103109190610f44565b60405180910390f35b34801561032557600080fd5b5061032e610b4f565b60405161033b9190610f44565b60405180910390f35b61035e60048036038101906103599190610fcb565b610b55565b60405161036b91906112e6565b60405180910390f35b34801561038057600080fd5b50610389610ddf565b6040516103969190610f44565b60405180910390f35b60036020528060005260406000206000915090505481565b3373ffffffffffffffffffffffffffffffffffffffff16600760009054906101000a900473ffffffffffffffffffffffffffffffffffffffff1673ffffffffffffffffffffffffffffffffffffffff1614610447576040517f08c379a000000000000000000000000000000000000000000000000000000000815260040161043e90611354565b60405180910390fd5b81600581905550804261045a91906113a3565b6006819055505050565b6000806002600084815260200190815260200160002090508060030154915050919050565b600760009054906101000a900473ffffffffffffffffffffffffffffffffffffffff1681565b8080600054116104f4576040517f08c379a00000000000000000000000000000000000000000000000000000000081526004016104eb90611445565b60405180910390fd5b6000600360003373ffffffffffffffffffffffffffffffffffffffff1673ffffffffffffffffffffffffffffffffffffffff1681526020019081526020016000205411610576576040517f08c379a000000000000000000000000000000000000000000000000000000000815260040161056d906114b1565b60405180910390fd5b60006002600084815260200190815260200160002090508060050160003373ffffffffffffffffffffffffffffffffffffffff1673ffffffffffffffffffffffffffffffffffffffff16815260200190815260200160002060009054906101000a900460ff161561061c576040517f08c379a00000000000000000000000000000000000000000000000000000000081526004016106139061151d565b60405180910390fd5b60018160050160003373ffffffffffffffffffffffffffffffffffffffff1673ffffffffffffffffffffffffffffffffffffffff16815260200190815260200160002060006101000a81548160ff02191690831515021790555080600301600081548092919061068b9061153d565b9190505550505050565b6000600180549050905090565b60055481565b60065442116106ec576040517f08c379a00000000000000000000000000000000000000000000000000000000081526004016106e3906115d2565b60405180910390fd5b6000600360003373ffffffffffffffffffffffffffffffffffffffff1673ffffffffffffffffffffffffffffffffffffffff168152602001908152602001600020541161076e576040517f08c379a00000000000000000000000000000000000000000000000000000000081526004016107659061163e565b60405180910390fd5b3373ffffffffffffffffffffffffffffffffffffffff166108fc600360003373ffffffffffffffffffffffffffffffffffffffff1673ffffffffffffffffffffffffffffffffffffffff168152602001908152602001600020549081150290604051600060405180830381858888f193505050501580156107f3573d6000803e3d6000fd5b50565b60026020528060005260406000206000915090508060000180546108199061168d565b80601f01602080910402602001604051908101604052809291908181526020018280546108459061168d565b80156108925780601f1061086757610100808354040283529160200191610892565b820191906000526020600020905b81548152906001019060200180831161087557829003601f168201915b5050505050908060010154908060020160009054906101000a900473ffffffffffffffffffffffffffffffffffffffff16908060030154908060040160009054906101000a900460ff16905085565b6006544210610925576040517f08c379a000000000000000000000000000000000000000000000000000000000815260040161091c9061170b565b60405180910390fd5b662386f26fc1000034101561096f576040517f08c379a00000000000000000000000000000000000000000000000000000000081526004016109669061179d565b60405180910390fd5b6000600360003373ffffffffffffffffffffffffffffffffffffffff1673ffffffffffffffffffffffffffffffffffffffff168152602001908152602001600020541415610a1b576001339080600181540180825580915050600190039060005260206000200160009091909190916101000a81548173ffffffffffffffffffffffffffffffffffffffff021916908373ffffffffffffffffffffffffffffffffffffffff1602179055505b34600360003373ffffffffffffffffffffffffffffffffffffffff1673ffffffffffffffffffffffffffffffffffffffff1681526020019081526020016000206000828254610a6a91906113a3565b925050819055503460046000828254610a8391906113a3565b92505081905550565b60005481565b60006002600080548152602001908152602001600020905083816000019080519060200190610ac2929190610de9565b50828160010181905550818160020160006101000a81548173ffffffffffffffffffffffffffffffffffffffff021916908373ffffffffffffffffffffffffffffffffffffffff16021790555060008160040160006101000a81548160ff021916908315150217905550600080815480929190610b3e9061153d565b919050555050505050565b60065481565b60045481565b6060818060005411610b9c576040517f08c379a0000000000000000000000000000000000000000000000000000000008152600401610b9390611445565b60405180910390fd5b60006002600085815260200190815260200160002090508060010154471015610bfa576040517f08c379a0000000000000000000000000000000000000000000000000000000008152600401610bf190611809565b60405180910390fd5b6002600180549050610c0c9190611858565b816003015411610c51576040517f08c379a0000000000000000000000000000000000000000000000000000000008152600401610c48906118d5565b60405180910390fd5b8060040160009054906101000a900460ff1615610ca3576040517f08c379a0000000000000000000000000000000000000000000000000000000008152600401610c9a90611941565b60405180910390fd5b60008160020160009054906101000a900473ffffffffffffffffffffffffffffffffffffffff1673ffffffffffffffffffffffffffffffffffffffff168260010154600036604051610cf6929190611991565b60006040518083038185875af1925050503d8060008114610d33576040519150601f19603f3d011682016040523d82523d6000602084013e610d38565b606091505b505090508015610dbb57816001015460046000828254610d5891906119aa565b9250508190555060018260040160006101000a81548160ff0219169083151502179055506040518060400160405280600d81526020017f596f75206861766520506169640000000000000000000000000000000000000081525093505050610dd9565b6040518060600160405280602681526020016119df60269139935050505b50919050565b6000600654905090565b828054610df59061168d565b90600052602060002090601f016020900481019282610e175760008555610e5e565b82601f10610e3057805160ff1916838001178555610e5e565b82800160010185558215610e5e579182015b82811115610e5d578251825591602001919060010190610e42565b5b509050610e6b9190610e6f565b5090565b5b80821115610e88576000816000905550600101610e70565b5090565b6000604051905090565b600080fd5b600080fd5b600073ffffffffffffffffffffffffffffffffffffffff82169050919050565b6000610ecb82610ea0565b9050919050565b610edb81610ec0565b8114610ee657600080fd5b50565b600081359050610ef881610ed2565b92915050565b600060208284031215610f1457610f13610e96565b5b6000610f2284828501610ee9565b91505092915050565b6000819050919050565b610f3e81610f2b565b82525050565b6000602082019050610f596000830184610f35565b92915050565b610f6881610f2b565b8114610f7357600080fd5b50565b600081359050610f8581610f5f565b92915050565b60008060408385031215610fa257610fa1610e96565b5b6000610fb085828601610f76565b9250506020610fc185828601610f76565b9150509250929050565b600060208284031215610fe157610fe0610e96565b5b6000610fef84828501610f76565b91505092915050565b600061100382610ea0565b9050919050565b61101381610ff8565b82525050565b600060208201905061102e600083018461100a565b92915050565b600081519050919050565b600082825260208201905092915050565b60005b8381101561106e578082015181840152602081019050611053565b8381111561107d576000848401525b50505050565b6000601f19601f8301169050919050565b600061109f82611034565b6110a9818561103f565b93506110b9818560208601611050565b6110c281611083565b840191505092915050565b60008115159050919050565b6110e2816110cd565b82525050565b600060a08201905081810360008301526111028188611094565b90506111116020830187610f35565b61111e604083018661100a565b61112b6060830185610f35565b61113860808301846110d9565b9695505050505050565b600080fd5b600080fd5b7f4e487b7100000000000000000000000000000000000000000000000000000000600052604160045260246000fd5b61118482611083565b810181811067ffffffffffffffff821117156111a3576111a261114c565b5b80604052505050565b60006111b6610e8c565b90506111c2828261117b565b919050565b600067ffffffffffffffff8211156111e2576111e161114c565b5b6111eb82611083565b9050602081019050919050565b82818337600083830152505050565b600061121a611215846111c7565b6111ac565b90508281526020810184848401111561123657611235611147565b5b6112418482856111f8565b509392505050565b600082601f83011261125e5761125d611142565b5b813561126e848260208601611207565b91505092915050565b6000806000606084860312156112905761128f610e96565b5b600084013567ffffffffffffffff8111156112ae576112ad610e9b565b5b6112ba86828701611249565b93505060206112cb86828701610f76565b92505060406112dc86828701610ee9565b9150509250925092565b600060208201905081810360008301526113008184611094565b905092915050565b7f596f7520617265206e6f7420616e204d616e6167657200000000000000000000600082015250565b600061133e60168361103f565b915061134982611308565b602082019050919050565b6000602082019050818103600083015261136d81611331565b9050919050565b7f4e487b7100000000000000000000000000000000000000000000000000000000600052601160045260246000fd5b60006113ae82610f2b565b91506113b983610f2b565b9250827fffffffffffffffffffffffffffffffffffffffffffffffffffffffffffffffff038211156113ee576113ed611374565b5b828201905092915050565b7f446f6e27742068617665205065746974696f6e206f6620746869732049440000600082015250565b600061142f601e8361103f565b915061143a826113f9565b602082019050919050565b6000602082019050818103600083015261145e81611422565b9050919050565b7f596f7520617265206e6f7420612066756e646572000000000000000000000000600082015250565b600061149b60148361103f565b91506114a682611465565b602082019050919050565b600060208201905081810360008301526114ca8161148e565b9050919050565b7f416c726561647920566f74656400000000000000000000000000000000000000600082015250565b6000611507600d8361103f565b9150611512826114d1565b602082019050919050565b60006020820190508181036000830152611536816114fa565b9050919050565b600061154882610f2b565b91507fffffffffffffffffffffffffffffffffffffffffffffffffffffffffffffffff82141561157b5761157a611374565b5b600182019050919050565b7f446561646c696e6520686173206e6f74206265656e2050617373656400000000600082015250565b60006115bc601c8361103f565b91506115c782611586565b602082019050919050565b600060208201905081810360008301526115eb816115af565b9050919050565b7f596f7520617265206e6f7420612046756e646572000000000000000000000000600082015250565b600061162860148361103f565b9150611633826115f2565b602082019050919050565b600060208201905081810360008301526116578161161b565b9050919050565b7f4e487b7100000000000000000000000000000000000000000000000000000000600052602260045260246000fd5b600060028204905060018216806116a557607f821691505b602082108114156116b9576116b861165e565b5b50919050565b7f446561646c696e6520686173206265656e205061737365640000000000000000600082015250565b60006116f560188361103f565b9150611700826116bf565b602082019050919050565b60006020820190508181036000830152611724816116e8565b9050919050565b7f46756e64696e6720416d6f756e74204d7573742062652067726561746572207460008201527f68616e20302e3031206574686572000000000000000000000000000000000000602082015250565b6000611787602e8361103f565b91506117928261172b565b604082019050919050565b600060208201905081810360008301526117b68161177a565b9050919050565b7f4e6f7420656e6f7567682046756e640000000000000000000000000000000000600082015250565b60006117f3600f8361103f565b91506117fe826117bd565b602082019050919050565b60006020820190508181036000830152611822816117e6565b9050919050565b7f4e487b7100000000000000000000000000000000000000000000000000000000600052601260045260246000fd5b600061186382610f2b565b915061186e83610f2b565b92508261187e5761187d611829565b5b828204905092915050565b7f536f7272792c52657175657374204e6f742046756c6c66696c6c656400000000600082015250565b60006118bf601c8361103f565b91506118ca82611889565b602082019050919050565b600060208201905081810360008301526118ee816118b2565b9050919050565b7f416c726561647920506169640000000000000000000000000000000000000000600082015250565b600061192b600c8361103f565b9150611936826118f5565b602082019050919050565b6000602082019050818103600083015261195a8161191e565b9050919050565b600081905092915050565b60006119788385611961565b93506119858385846111f8565b82840190509392505050565b600061199e82848661196c565b91508190509392505050565b60006119b582610f2b565b91506119c083610f2b565b9250828210156119d3576119d2611374565b5b82820390509291505056fe5472616e73616374696f6e204661696c65642074727920616674657220736f6d6574696d6573a2646970667358221220c481af9f7f34d3ace5d8a524959dd64877de2c5c61c0ca36111df156e0b0cffb64736f6c63430008090033",
  "linkReferences": {},
  "deployedLinkReferences": {}
}